:0A0802003443101001C2C2C2C2C18B
:060476000108000109006D
:10000300E4FEEF30E704D2938002C293EF25E0FFD2
:0E001300D292309403430701C2920EBE08E45D
:0100210022BC
:10079E007F027E001206FCC290D291C292D29522A6
:0C07DC00C291120003E4FF120003D2914E
:0107E80022EE
:0E06DD001206EB7D407F251206EB7D077F267F
:1006EB00C291120003AC07AF05120003D291AF0405
:0106FB0022DC
:0705FF007B007518057F6108
:060606008B158A1689170E
:10060C00C291120003AD07E4FCECC395185017E43B
:10061C00FF120003AB15AA16A9178C82758300EF85
:0A062C001205DD0C80E3D291AF054A
:0106360022A1
:060637008B158A168917DD
:10063D00C291120003AD07E4FCECC395185018AB42
:10064D00150517E517AA167002051614F91205C43B
:0B065D00FF1200030C80E2D291AF05F9
:01066800226F
:100537008B198A1A891BC2907BFF7A087902751872
:10054700057F30120637AB19AA1AA91B7518057F44
:10055700A01206377D017F211206EB7F221206EBE0
:100567007D0A7F241206DD7D0E7F201206EBD290D6
:070577007F057E000206FC77
:10057E00C2907BFF7A0879027518057F2A1206371A
:10058E007BFF7A0879077518057F2B1206377D03D6
:10059E007F211206EB7F221206EB7D057F311206BC
:1005AE00EB7F321206DD7D0F7F201206EBD2907F9D
:0605BE00057E000206FCB0
:10078C007F071207DC8F203005077DFF7F271206BD
:02079C00EB224E
:100159007F071207DC8F202006030201F0E52054F7
:100169000EC29024FE60122402701C7A00790A12D1
:1001790005FFE4F508050980127A00790F1205FFD9
:10018900E4F5090508800405080509E4FD7F011265
:100199000764AF0A1207BEAF0B1207BEAF0C1207F6
:1001A900BE7F2E1207BEAF0D1207BEAF0E1207BEDD
:1001B9007D097F01120764AF0F1207BEAF10120746
:1001C900BEAF111207BE7F2E1207BEAF121207BEB5
:1001D900AF131207BE7DFF7F271206EBC2917FE2A4
:1001E900120003D291800405080509E508C3940F9C
:1001F9004036E4F508750A2D750B2D750C2D750D16
:100209002D750E2DFD7F01120764AF0A1207BEAFCF
:100219000B1207BEAF0C1207BE7F2E1207BEAF0D21
:100229001207BEAF0E1207BEE509C3940F4037E4AB
:10023900F509750F2D75102D75112D75122D751365
:100249002D7D097F01120764AF0F1207BEAF10128F
:1002590007BEAF111207BE7F2E1207BEAF121207DB
:06026900BEAF131207BE38
:01026F00226C
:0D07CE00EFD3940040077E6EDEFE1F80F327
:0107DB0022FB
:1006FC00D3EF9400EE940040147D6E7C00ED1D70E1
:0D070C00011CED4C70F7EF1F70E61E80E33E
:0107190022BD
:10073700E4F587758920758DFD758BFDC29FD29E67
:09074700D2AFD2ACD28ED29C22BA
:0C07F600C2AC8F993099FDC299D2AC22A0
:100750001205C4FFF4600C1207F6740129F9E43A9B
:04076000FA80ED220C
:030023000207E9E8
:0D07E900C2AC309805C29885991CD2AC3284
:1007AE008F80C2A5C2A67F051207CED2A7C2A722EE
:1007BE008F80D2A5C2A67F051207CED2A7C2A722CE
:100764008D17EF7006E51724808004E51724C0FF79
:040774001207AE2298
:1006B7008B148A158916120764AB14AA15A916128A
:1006C70005C4FF60101207BE74012516F516E43540
:0606D70015F51580E42278
:100778007F381207AE7F0C1207AE7F061207AE7FD6
:04078800010207AEB5
:1004DD002020202057656C636F6D65202020200043
:1004ED00202020284B7061292020202000204C65E1
:1004FD006674202020205269676874202000202017
:10050D002050726573737572655F4820200020203E
:10051D002020202E30304B7061002020205072653D
:0A052D0073737572655F4C202000A7
:10047C00012300015100013500012C64013D5A0794
:10048C0052AA07020001B4FF0736AA07020002B500
:10049C00FF074AAA07020003B6FF072EAA070200AD
:1004AC0004B7FF0724AA07020005B8FF073EAA07F6
:1004BC00020006B9FF0760AA07020007BAFF075936
:1004CC00AA07020008BBFF012D00012B00016F00E1
:10066900E52C75F064842430F545E52C75F0648437
:10067900AFF0EF75F00A842430F546EF75F00A847F
:07068900E5F02430F54722E3
:10069000E53D75F064842430F567E53D75F06484CC
:1006A000AFF0EF75F00A842430F568EF75F00A8436
:0706B000E5F02430F569229A
:10071A0020B2197F327E001206FC20B20F30B2FDE1
:0D072A000523E523C394034003E4F52322D7
:10034B0020B34C7F507E001206FC20B342E523B451
:10035B00011C052CE52CD394FA4003752CFA1206DC
:10036B00697B007A0079457D047F011206B7E5238E
:10037B00B4021C053DE53DD394FA4003753DFA12DA
:10038B0006907B007A0079677D047F011206B72007
:10039B00B44C7F507E001206FC20B442E523B4011E
:1003AB001C152CE52CD394015003752C01120669F6
:1003BB007B007A0079457D047F011206B7E523B4F3
:1003CB00021C153DE53DD394015003753D0112060A
:0F03DB00907B007A0079677D047F011206B722BC
:1000260030B5177F327E001206FC30B50D7F327E6A
:10003600001206FC30B503020158E50A642D700370
:10004600020158E50F642D7003020158E50A24D019
:10005600F56CE50B24D0F56DE50C24D0F56EE56D59
:1000660075F00AA4FFE56C75F064A42F256EF521E2
:10007600E50F24D0F56CE51024D0F56DE51124D0FC
:10008600F56EE56D75F00AA4FFE56C75F064A42FB6
:10009600256EF522E4F52DE521C3952C4005432D6B
:1000A60001800AE521C3953D5003432D02E522C395
:1000B600952C4005432D04800AE522C3953D500347
:1000C600432D08E52D600F056FE56FC394144006B8
:1000D600E4F56F752B01E52B6078E4F52BE52D141F
:1000E600B40A00506D9000F975F003A4C58325F09D
:1000F600C5837302011702011F020158020127027C
:10010600013702014F02015802012F020147020185
:100116003F7B007A00793680367B007A0079528000
:100126002E7B007A00792E80267B007A00794A8021
:100136001E7B007A00793E80167B007A0079248047
:100146000E7B007A00796080067B007A007959126E
:030156000750222D
:100270001207781207377BFF7A0479DD7D02E4FFED
:100280001206B77FE87E031206FC7BFF7A0479ED45
:100290007D027F011206B77FE87E031206FC12077B
:1002A0009E12071AE5237021E5357012753501128B
:1002B00007787BFF7A0479FAE4FDFF1206B712058E
:1002C0007E12015912002680D8E5236401703BE5B7
:1002D00035640170307535021207787BFF7A057935
:1002E0000B7D03E4FF1206B77BFF7A05791B7D02C5
:1002F0007F021206B71206697B007A0079457D04F9
:100300007F011206B712034B8097E52364027091B8
:10031000E5356402702FF5351207787BFF7A057991
:10032000277D03E4FF1206B77BFF7A05791B7D0268
:100330007F021206B71206907B007A0079677D046F
:0B0340007F011206B712034B0202A15E
:030000000203EA0E
:0C03EA00787FE4F6D8FD75816F020431C5
:1005C400BB010689828A83E0225002E722BBFE0235
:0905D400E32289828A83E4932268
:1005DD00F8BB010DE58229F582E5833AF583E8F054
:1005ED00225006E92582C8F622BBFE05E92582C800
:0205FD00F222E8
:1003F600020270E493A3F8E493A34003F68001F2AB
:1004060008DFF48029E493A3F85407240CC8C33307
:10041600C4540F4420C8834004F456800146F6DFD6
:10042600E4800B0102040810204080900476E47EEC
:10043600019360BCA3FF543F30E509541FFEE493CB
:10044600A360010ECF54C025E060A840B8E493A392
:10045600FAE493A3F8E493A3C8C582C8CAC583CABD
:10046600F0A3C8C582C8CAC583CADFE9DEE780BE75
:0104DC00001F
:00000001FF
