:0509B700C2C2C2C2C172
:10087B00E4FEEF30E704D2938002C293EF25E0FF52
:0E088B00D292309403430701C2920EBE08E4DD
:01089900223C
:10094B007F027E0012089AC290D291C292D2952257
:0C098700C29112087BE4FF12087BD291A1
:010993002241
:0908F4007D017F211208FD7F2225
:1008FD00C29112087BAC07AF0512087BD291AF04F1
:01090D0022C7
:060761008B098A0A890BD6
:10076700C29112087BAD07E4FCECC3950C5017E46B
:10077700FF12087BAB09AA0AA90B8C82758300EFCD
:0A0787001203A20C80E3D291AF052B
:010791002245
:0B0724007BFF7A0979B77529057F2A51
:06072F008B268A278928B1
:10073500C29112087BAD07E4FCECC395295018ABB8
:10074500260528E528AA277002052714F91203892A
:0B075500FF12087B0C80E2D291AF0580
:010760002276
:100691008B228A238924C2907BFF7A0979B7752935
:1006A100057F3012072F120724AB22AA23A9247534
:1006B10029057FA012072F1208F47D0A7F24120852
:1006C100FD7D407F251208FD7D077F261208FD7DF7
:0F06D1000E7F201208FDD2907F057E0002089A4E
:1007C000C2901207241208F47D407F251208FD7D97
:1007D000057F311208FD7D077F261208FD7D0F7F02
:0D07E000201208FDD2907F057E0002089ACD
:100812007F071209878F202005033004137DFF7F95
:10082200271208FDC2917FE112087BD2917F00223C
:030832007F012221
:060792008B0D8A0E890F99
:10079800E4FB7F071209878F20300612C290AB0D49
:1007A800AA0EA90F750C057F611207617B017DFFF9
:0707B8007F271208FDAF03CB
:0107BF002217
:10089A00D3EF9400EE940040147D6E7C00ED1D7041
:0D08AA00011CED4C70F7EF1F70E61E80E39F
:0108B700221E
:10092800E4FDFCC3ED9FEC9E50070DBD00010C805B
:01093800F2CC
:01093900229B
:10052C008F518E508D4F8C4E7BA07A86790178003E
:10053C001206E0EF2430F552AF51AE50AD4FAC4E39
:10054C007BA07A86790178001206E0AC00AD01AE92
:10055C0002AF038F518E508D4F8C4EE47B107A2757
:10056C00F9F81206E0EF2430F55DAF51AE50AD4F07
:10057C00AC4EE47B107A27F9F81206E0AC00AD0122
:10058C00AE02AF038F518E508D4F8C4EE47BE87AC8
:10059C0003F9F81206E0EF2430F557AF51AE50AD29
:1005AC004FAC4EE47BE87A03F9F81206E0AC00ADF0
:1005BC0001AE02AF038F518E508D4F8C4EE47B6495
:1005CC00FAF9F81206E0EF2430F558AF51AE50AD01
:1005DC004FAC4EE47B64FAF9F81206E0AC00AD01C6
:1005EC00AE02AF038F518E508D4F8C4EE47B0AFAC6
:1005FC00F9F81206E0EF2430F55CAF51AE50AD4F78
:10060C00AC4EE47B0AFAF9F81206E0AC00AD01AE90
:10061C0002AF038F518E508D4F8C4EEF2430F55E10
:01062C0022AB
:10093A0000000000000000000000000000000000AD
:01094A00228A
:0E095B007F307E02EF1FAC0670011E4C70F65E
:01096900226B
:0F096A00D2B2D2B312093AC2B212093AC2B322C0
:0A09AD00C2B2D2B312093A02093AAD
:0E097900A20892B2D2B312093AC2B302093AEE
:0D099400D2B312093AA2B2C2B312093A223C
:0A08350012096A7FEE12083F7FF4FB
:10083F00E4FEEF25E0FF92B2D2B312093AC2B3122F
:09084F00093A0EBE08EC020994FE
:1008B800E4FFD2B2FEEF25E0FFD2B312093AA2B2AA
:0D08C800E4334207C2B312093A0EBE08E83D
:0108D5002200
:0207ED008F4E2D
:1007EF001208B8AD07C2081209791208B8AB07D2C0
:1007FF00081209791209AD12095BAF05EFFEAD03BF
:02080F00EDFFFB
:0108110022C4
:1008D6001208357F2E12083F1209AD7F0A7E0012DC
:0E08E600089A7FF61207EDEE3395E0FDFC2236
:100858007F007E007D007C001208357F3412083F3F
:100868001209AD7F0A7E0012089A7FF61207EDE49E
:02087800FDFC85
:01087A00225B
:10062D007FAA1207ED8E6A8F6B7FAC1207ED8E6C71
:10063D008F6D7FAE1207ED8E6E8F6F7FB01207ED4F
:10064D008E708F717FB21207ED8E728F737FB41221
:10065D0007ED8E748F757FB61207ED8E538F547F15
:10066D00B81207ED8E558F567FBA1207ED8E648F37
:10067D00657FBC1207ED8E668F677FBE1207ED8E0C
:04068D00688F6922E7
:100003001208D68F258E248D238C221208D68F2595
:100013008E248D238C221208588F298E288D278CAD
:10002300261208588F298E288D278C26AE74AF751B
:10003300AB07AA06C3E5259BFBE5249AFAE52394BF
:1000430000F9E5229400F8AE72AF73E4FCFD1203ED
:10005300C4780F1205058F2D8E2C8D2B8C2AAE663E
:10006300AF67EE3395E0FDFC780B120519C004C0B1
:1000730005C006AE68EE3395E0FDFCE569252DFB72
:10008300EE352CFAED352BF9EC352AF8D006D005F0
:10009300D0041206E08F318E308D2F8C2EE52D2566
:1000A30031F535E52C3530F534E52B352FF533E5D2
:1000B3002A352EF532E5352408FFE43534FEE435E0
:1000C30033FDE43532FC780412050512052CE535C1
:1000D3002460F539E53434F0F538E53334FFF5378A
:1000E300E53234FFF536AF39AE38AD37FCF8A90544
:1000F300AA06AB071203C4780C120505A804A905C8
:10010300AA06AB07AE55AF56EE3395E0FDFC1203DE
:10011300C4780B1205058F2D8E2C8D2B8C2AAE6C7B
:10012300AF6DEE3395E0FDFCAB39AA38A937A8369D
:100133001203C4780B1205058F318E308D2F8C2E50
:10014300E52D2531F53DE52C3530F53CE52B352FF7
:10015300F53BE52A352EF53AAE6AAF6BEE3395E003
:10016300FDFCE47B04FAF9F81203C4EF253DFFEE2E
:10017300353CFEED353BFDEC353AFCEF2402FFE464
:100183003EFEE43DFDE43CFCE47B04FAF9F8120690
:10019300E08F418E408D3F8C3EAE6EAF6FEE339558
:1001A300E0FDFCAB39AA38A937A8361203C4780D91
:1001B3001205058F2D8E2C8D2B8C2AAF39AE38ADC1
:1001C30037AC36AB39AA38A937A8361203C4780C32
:1001D300120505A804A905AA06AB07AE53AF54EE52
:1001E3003395E0FDFC1203C478101205058F318EA0
:1001F300308D2F8C2EE52D2531FFE52C3530FEE596
:100203002B352FFDE52A352EFCEF2402FFE43EFEBD
:10021300E43DFDE43CFC78021205058F3D8E3C8DE8
:100223003B8C3AE4253DFFE53C3480FEE4353BFD61
:10023300E4353AAB07AA06A905F8AE70AF71E4FC42
:10024300FD1203C4780F1204F28F498E488D478C38
:1002530046C3E5299541FFE5289540FEE527953FEF
:10026300FDE526953EFCE47B507AC3F9F81203C4FE
:100273008F4D8E4C8D4B8C4AE4FFFEFD7C80AB4D45
:10028300AA4CA94BA84AC31204E15018E47F02FE0A
:10029300FDFCA84A1203C4AB49AA48A947A84612C1
:1002A300044F801CAB49AA48A947A846AF4DAE4CA2
:1002B300AD4BAC4A12044FE47B02FAF9F81203C4C3
:1002C3008F458E448D438C42AF45AE44AD43AC4223
:1002D3007808120505C004C005C006C007AF45AEC7
:1002E30044AD43AC427808120505D003D002D001D7
:1002F300D0001203C48F2D8E2C8D2B8C2AE47FDE2D
:100303007E0BFDFCAB2DAA2CA92BA82A1203C478C3
:10031300101205058F2D8E2C8D2B8C2A7F437EE3A7
:100323007DFF7CFFAB45AA44A943A8421203C478CE
:10033300101205058F318E308D2F8C2EE52D253132
:10034300FFE52C3530FEE52B352FFDE52A352EFC58
:10035300EF24CFFFEE340EFEE43DFDE43CFC7804D5
:10036300120505EF2545FFEE3544FEED3543FDEC63
:100373003542FC12052C85525F855D60855761858A
:050383005862855C6377
:010388002252
:10090E0012094B12062D1200037B007A00795F123A
:0A091E000691120812EF60EE80F857
:030000000209A151
:0C09A100787FE4F6D8FD75817502090E20
:10038900BB010689828A83E0225002E722BBFE0272
:09039900E32289828A83E49322A5
:1003A200F8BB010DE58229F582E5833AF583E8F091
:1003B200225006E92582C8F622BBFE05E92582C83D
:0203C200F22225
:1003C400E88FF0A4CC8BF0A42CFCE98EF0A42CFCD8
:1003D4008AF0EDA42CFCEA8EF0A4CDA8F08BF0A456
:1003E4002DCC3825F0FDE98FF0A42CCD35F0FCEBB5
:1003F4008EF0A4FEA9F0EB8FF0A4CFC5F02ECD397A
:0F040400FEE43CFCEAA42DCE35F0FDE43CFC22E6
:1004130075F008758200EF2FFFEE33FECD33CDCCA0
:1004230033CCC58233C5829BED9AEC99E582984023
:100433000CF582EE9BFEED9AFDEC99FC0FD5F0D600
:10044300E4CEFBE4CDFAE4CCF9A88222B800C1B92A
:100453000059BA002DEC8BF084CFCECDFCE5F0CB68
:10046300F97818EF2FFFEE33FEED33FDEC33FCEBA1
:1004730033FB10D703994004EB99FB0FD8E5E4F95C
:10048300FA227818EF2FFFEE33FEED33FDEC33FC49
:10049300C933C910D7059BE99A4007EC9BFCE99A3D
:1004A300F90FD8E0E4C9FAE4CCFB2275F010EF2F82
:1004B300FFEE33FEED33FDCC33CCC833C810D70782
:1004C3009BEC9AE899400AED9BFDEC9AFCE899F8BD
:0E04D3000FD5F0DAE4CDFBE4CCFAE4C8F92250
:1006E000C2D5E830E70FB2D5E4C39BFBE49AFAE445
:1006F00099F9E498F8EC30E717B2D512071612040E
:100700004FE4C39BFBE49AFAE499F9E498F8800378
:1007100012044F30D50DE4C39FFFE49EFEE49DFD1F
:04072000E49CFC2237
:1004E100EB9FF5F0EA9E42F0E99D42F0E89C45F071
:0104F10022E8
:1004F200E8600FECC313FCED13FDEE13FEEF13FFE8
:03050200D8F1220B
:10050500E86010ECA2E713FCED13FDEE13FEEF130C
:04051500FFD8F022F9
:10051900E8600FEFC333FFEE33FEED33FDEC33FC40
:03052900D8F122E4
:00000001FF
